{
  "address": "0x9fE46736679d2D9a65F0992F2272dE9f3c7fa6e0",
  "abi": [
    {
      "inputs": [
        {
          "internalType": "address",
          "name": "_wool",
          "type": "address"
        },
        {
          "internalType": "address",
          "name": "_traits",
          "type": "address"
        },
        {
          "internalType": "uint256",
          "name": "_maxTokens",
          "type": "uint256"
        }
      ],
      "stateMutability": "nonpayable",
      "type": "constructor"
    },
    {
      "anonymous": false,
      "inputs": [
        {
          "indexed": true,
          "internalType": "address",
          "name": "owner",
          "type": "address"
        },
        {
          "indexed": true,
          "internalType": "address",
          "name": "approved",
          "type": "address"
        },
        {
          "indexed": true,
          "internalType": "uint256",
          "name": "tokenId",
          "type": "uint256"
        }
      ],
      "name": "Approval",
      "type": "event"
    },
    {
      "anonymous": false,
      "inputs": [
        {
          "indexed": true,
          "internalType": "address",
          "name": "owner",
          "type": "address"
        },
        {
          "indexed": true,
          "internalType": "address",
          "name": "operator",
          "type": "address"
        },
        {
          "indexed": false,
          "internalType": "bool",
          "name": "approved",
          "type": "bool"
        }
      ],
      "name": "ApprovalForAll",
      "type": "event"
    },
    {
      "anonymous": false,
      "inputs": [
        {
          "indexed": true,
          "internalType": "address",
          "name": "previousOwner",
          "type": "address"
        },
        {
          "indexed": true,
          "internalType": "address",
          "name": "newOwner",
          "type": "address"
        }
      ],
      "name": "OwnershipTransferred",
      "type": "event"
    },
    {
      "anonymous": false,
      "inputs": [
        {
          "indexed": false,
          "internalType": "address",
          "name": "account",
          "type": "address"
        }
      ],
      "name": "Paused",
      "type": "event"
    },
    {
      "anonymous": false,
      "inputs": [
        {
          "indexed": true,
          "internalType": "address",
          "name": "from",
          "type": "address"
        },
        {
          "indexed": true,
          "internalType": "address",
          "name": "to",
          "type": "address"
        },
        {
          "indexed": true,
          "internalType": "uint256",
          "name": "tokenId",
          "type": "uint256"
        }
      ],
      "name": "Transfer",
      "type": "event"
    },
    {
      "anonymous": false,
      "inputs": [
        {
          "indexed": false,
          "internalType": "address",
          "name": "account",
          "type": "address"
        }
      ],
      "name": "Unpaused",
      "type": "event"
    },
    {
      "inputs": [],
      "name": "MAX_TOKENS",
      "outputs": [
        {
          "internalType": "uint256",
          "name": "",
          "type": "uint256"
        }
      ],
      "stateMutability": "view",
      "type": "function"
    },
    {
      "inputs": [],
      "name": "MINT_PRICE",
      "outputs": [
        {
          "internalType": "uint256",
          "name": "",
          "type": "uint256"
        }
      ],
      "stateMutability": "view",
      "type": "function"
    },
    {
      "inputs": [],
      "name": "PAID_TOKENS",
      "outputs": [
        {
          "internalType": "uint256",
          "name": "",
          "type": "uint256"
        }
      ],
      "stateMutability": "view",
      "type": "function"
    },
    {
      "inputs": [
        {
          "internalType": "uint256",
          "name": "",
          "type": "uint256"
        },
        {
          "internalType": "uint256",
          "name": "",
          "type": "uint256"
        }
      ],
      "name": "aliases",
      "outputs": [
        {
          "internalType": "uint8",
          "name": "",
          "type": "uint8"
        }
      ],
      "stateMutability": "view",
      "type": "function"
    },
    {
      "inputs": [
        {
          "internalType": "address",
          "name": "to",
          "type": "address"
        },
        {
          "internalType": "uint256",
          "name": "tokenId",
          "type": "uint256"
        }
      ],
      "name": "approve",
      "outputs": [],
      "stateMutability": "nonpayable",
      "type": "function"
    },
    {
      "inputs": [
        {
          "internalType": "address",
          "name": "owner",
          "type": "address"
        }
      ],
      "name": "balanceOf",
      "outputs": [
        {
          "internalType": "uint256",
          "name": "",
          "type": "uint256"
        }
      ],
      "stateMutability": "view",
      "type": "function"
    },
    {
      "inputs": [],
      "name": "barn",
      "outputs": [
        {
          "internalType": "contract IBarn",
          "name": "",
          "type": "address"
        }
      ],
      "stateMutability": "view",
      "type": "function"
    },
    {
      "inputs": [
        {
          "internalType": "uint256",
          "name": "",
          "type": "uint256"
        }
      ],
      "name": "existingCombinations",
      "outputs": [
        {
          "internalType": "uint256",
          "name": "",
          "type": "uint256"
        }
      ],
      "stateMutability": "view",
      "type": "function"
    },
    {
      "inputs": [
        {
          "internalType": "uint256",
          "name": "tokenId",
          "type": "uint256"
        }
      ],
      "name": "getApproved",
      "outputs": [
        {
          "internalType": "address",
          "name": "",
          "type": "address"
        }
      ],
      "stateMutability": "view",
      "type": "function"
    },
    {
      "inputs": [],
      "name": "getPaidTokens",
      "outputs": [
        {
          "internalType": "uint256",
          "name": "",
          "type": "uint256"
        }
      ],
      "stateMutability": "view",
      "type": "function"
    },
    {
      "inputs": [
        {
          "internalType": "uint256",
          "name": "tokenId",
          "type": "uint256"
        }
      ],
      "name": "getTokenTraits",
      "outputs": [
        {
          "components": [
            {
              "internalType": "bool",
              "name": "isSheep",
              "type": "bool"
            },
            {
              "internalType": "uint8",
              "name": "fur",
              "type": "uint8"
            },
            {
              "internalType": "uint8",
              "name": "head",
              "type": "uint8"
            },
            {
              "internalType": "uint8",
              "name": "ears",
              "type": "uint8"
            },
            {
              "internalType": "uint8",
              "name": "eyes",
              "type": "uint8"
            },
            {
              "internalType": "uint8",
              "name": "nose",
              "type": "uint8"
            },
            {
              "internalType": "uint8",
              "name": "mouth",
              "type": "uint8"
            },
            {
              "internalType": "uint8",
              "name": "neck",
              "type": "uint8"
            },
            {
              "internalType": "uint8",
              "name": "feet",
              "type": "uint8"
            },
            {
              "internalType": "uint8",
              "name": "alphaIndex",
              "type": "uint8"
            }
          ],
          "internalType": "struct IWoolf.SheepWolf",
          "name": "",
          "type": "tuple"
        }
      ],
      "stateMutability": "view",
      "type": "function"
    },
    {
      "inputs": [
        {
          "internalType": "address",
          "name": "owner",
          "type": "address"
        },
        {
          "internalType": "address",
          "name": "operator",
          "type": "address"
        }
      ],
      "name": "isApprovedForAll",
      "outputs": [
        {
          "internalType": "bool",
          "name": "",
          "type": "bool"
        }
      ],
      "stateMutability": "view",
      "type": "function"
    },
    {
      "inputs": [
        {
          "internalType": "uint256",
          "name": "amount",
          "type": "uint256"
        },
        {
          "internalType": "bool",
          "name": "stake",
          "type": "bool"
        }
      ],
      "name": "mint",
      "outputs": [],
      "stateMutability": "payable",
      "type": "function"
    },
    {
      "inputs": [
        {
          "internalType": "uint256",
          "name": "tokenId",
          "type": "uint256"
        }
      ],
      "name": "mintCost",
      "outputs": [
        {
          "internalType": "uint256",
          "name": "",
          "type": "uint256"
        }
      ],
      "stateMutability": "view",
      "type": "function"
    },
    {
      "inputs": [],
      "name": "minted",
      "outputs": [
        {
          "internalType": "uint16",
          "name": "",
          "type": "uint16"
        }
      ],
      "stateMutability": "view",
      "type": "function"
    },
    {
      "inputs": [],
      "name": "name",
      "outputs": [
        {
          "internalType": "string",
          "name": "",
          "type": "string"
        }
      ],
      "stateMutability": "view",
      "type": "function"
    },
    {
      "inputs": [],
      "name": "owner",
      "outputs": [
        {
          "internalType": "address",
          "name": "",
          "type": "address"
        }
      ],
      "stateMutability": "view",
      "type": "function"
    },
    {
      "inputs": [
        {
          "internalType": "uint256",
          "name": "tokenId",
          "type": "uint256"
        }
      ],
      "name": "ownerOf",
      "outputs": [
        {
          "internalType": "address",
          "name": "",
          "type": "address"
        }
      ],
      "stateMutability": "view",
      "type": "function"
    },
    {
      "inputs": [],
      "name": "paused",
      "outputs": [
        {
          "internalType": "bool",
          "name": "",
          "type": "bool"
        }
      ],
      "stateMutability": "view",
      "type": "function"
    },
    {
      "inputs": [
        {
          "internalType": "uint256",
          "name": "",
          "type": "uint256"
        },
        {
          "internalType": "uint256",
          "name": "",
          "type": "uint256"
        }
      ],
      "name": "rarities",
      "outputs": [
        {
          "internalType": "uint8",
          "name": "",
          "type": "uint8"
        }
      ],
      "stateMutability": "view",
      "type": "function"
    },
    {
      "inputs": [],
      "name": "renounceOwnership",
      "outputs": [],
      "stateMutability": "nonpayable",
      "type": "function"
    },
    {
      "inputs": [
        {
          "internalType": "address",
          "name": "from",
          "type": "address"
        },
        {
          "internalType": "address",
          "name": "to",
          "type": "address"
        },
        {
          "internalType": "uint256",
          "name": "tokenId",
          "type": "uint256"
        }
      ],
      "name": "safeTransferFrom",
      "outputs": [],
      "stateMutability": "nonpayable",
      "type": "function"
    },
    {
      "inputs": [
        {
          "internalType": "address",
          "name": "from",
          "type": "address"
        },
        {
          "internalType": "address",
          "name": "to",
          "type": "address"
        },
        {
          "internalType": "uint256",
          "name": "tokenId",
          "type": "uint256"
        },
        {
          "internalType": "bytes",
          "name": "_data",
          "type": "bytes"
        }
      ],
      "name": "safeTransferFrom",
      "outputs": [],
      "stateMutability": "nonpayable",
      "type": "function"
    },
    {
      "inputs": [
        {
          "internalType": "address",
          "name": "operator",
          "type": "address"
        },
        {
          "internalType": "bool",
          "name": "approved",
          "type": "bool"
        }
      ],
      "name": "setApprovalForAll",
      "outputs": [],
      "stateMutability": "nonpayable",
      "type": "function"
    },
    {
      "inputs": [
        {
          "internalType": "address",
          "name": "_barn",
          "type": "address"
        }
      ],
      "name": "setBarn",
      "outputs": [],
      "stateMutability": "nonpayable",
      "type": "function"
    },
    {
      "inputs": [
        {
          "internalType": "uint256",
          "name": "_paidTokens",
          "type": "uint256"
        }
      ],
      "name": "setPaidTokens",
      "outputs": [],
      "stateMutability": "nonpayable",
      "type": "function"
    },
    {
      "inputs": [
        {
          "internalType": "bool",
          "name": "_paused",
          "type": "bool"
        }
      ],
      "name": "setPaused",
      "outputs": [],
      "stateMutability": "nonpayable",
      "type": "function"
    },
    {
      "inputs": [
        {
          "internalType": "bytes4",
          "name": "interfaceId",
          "type": "bytes4"
        }
      ],
      "name": "supportsInterface",
      "outputs": [
        {
          "internalType": "bool",
          "name": "",
          "type": "bool"
        }
      ],
      "stateMutability": "view",
      "type": "function"
    },
    {
      "inputs": [],
      "name": "symbol",
      "outputs": [
        {
          "internalType": "string",
          "name": "",
          "type": "string"
        }
      ],
      "stateMutability": "view",
      "type": "function"
    },
    {
      "inputs": [
        {
          "internalType": "uint256",
          "name": "index",
          "type": "uint256"
        }
      ],
      "name": "tokenByIndex",
      "outputs": [
        {
          "internalType": "uint256",
          "name": "",
          "type": "uint256"
        }
      ],
      "stateMutability": "view",
      "type": "function"
    },
    {
      "inputs": [
        {
          "internalType": "address",
          "name": "owner",
          "type": "address"
        },
        {
          "internalType": "uint256",
          "name": "index",
          "type": "uint256"
        }
      ],
      "name": "tokenOfOwnerByIndex",
      "outputs": [
        {
          "internalType": "uint256",
          "name": "",
          "type": "uint256"
        }
      ],
      "stateMutability": "view",
      "type": "function"
    },
    {
      "inputs": [
        {
          "internalType": "uint256",
          "name": "",
          "type": "uint256"
        }
      ],
      "name": "tokenTraits",
      "outputs": [
        {
          "internalType": "bool",
          "name": "isSheep",
          "type": "bool"
        },
        {
          "internalType": "uint8",
          "name": "fur",
          "type": "uint8"
        },
        {
          "internalType": "uint8",
          "name": "head",
          "type": "uint8"
        },
        {
          "internalType": "uint8",
          "name": "ears",
          "type": "uint8"
        },
        {
          "internalType": "uint8",
          "name": "eyes",
          "type": "uint8"
        },
        {
          "internalType": "uint8",
          "name": "nose",
          "type": "uint8"
        },
        {
          "internalType": "uint8",
          "name": "mouth",
          "type": "uint8"
        },
        {
          "internalType": "uint8",
          "name": "neck",
          "type": "uint8"
        },
        {
          "internalType": "uint8",
          "name": "feet",
          "type": "uint8"
        },
        {
          "internalType": "uint8",
          "name": "alphaIndex",
          "type": "uint8"
        }
      ],
      "stateMutability": "view",
      "type": "function"
    },
    {
      "inputs": [
        {
          "internalType": "uint256",
          "name": "tokenId",
          "type": "uint256"
        }
      ],
      "name": "tokenURI",
      "outputs": [
        {
          "internalType": "string",
          "name": "",
          "type": "string"
        }
      ],
      "stateMutability": "view",
      "type": "function"
    },
    {
      "inputs": [],
      "name": "totalSupply",
      "outputs": [
        {
          "internalType": "uint256",
          "name": "",
          "type": "uint256"
        }
      ],
      "stateMutability": "view",
      "type": "function"
    },
    {
      "inputs": [],
      "name": "traits",
      "outputs": [
        {
          "internalType": "contract ITraits",
          "name": "",
          "type": "address"
        }
      ],
      "stateMutability": "view",
      "type": "function"
    },
    {
      "inputs": [
        {
          "internalType": "address",
          "name": "from",
          "type": "address"
        },
        {
          "internalType": "address",
          "name": "to",
          "type": "address"
        },
        {
          "internalType": "uint256",
          "name": "tokenId",
          "type": "uint256"
        }
      ],
      "name": "transferFrom",
      "outputs": [],
      "stateMutability": "nonpayable",
      "type": "function"
    },
    {
      "inputs": [
        {
          "internalType": "address",
          "name": "newOwner",
          "type": "address"
        }
      ],
      "name": "transferOwnership",
      "outputs": [],
      "stateMutability": "nonpayable",
      "type": "function"
    },
    {
      "inputs": [],
      "name": "withdraw",
      "outputs": [],
      "stateMutability": "nonpayable",
      "type": "function"
    },
    {
      "inputs": [],
      "name": "wool",
      "outputs": [
        {
          "internalType": "contract WOOL",
          "name": "",
          "type": "address"
        }
      ],
      "stateMutability": "view",
      "type": "function"
    }
  ],
  "transactionHash": "0xe5f101f46759d70a9c448623f80e6e38f8fcdaee7c0dbd7331263412dadc67ef",
  "args": [
    "0xe7f1725E7734CE288F8367e1Bb143E90bb3F0512",
    "0x5FbDB2315678afecb367f032d93F642f64180aa3",
    50000
  ],
  "numDeployments": 1,
  "solcInputHash": "315e37d8f7c1459fe5b3e58ab9049cb3",
  "bytecode": "0x60a06040523480156200001157600080fd5b50604051620042bd380380620042bd833981016040819052620000349162001131565b6040805180820182526009815268576f6c662047616d6560b81b6020808301918252835180850190945260058452645747414d4560d81b908401528151919291620000829160009162000fcb565b5080516200009890600190602084019062000fcb565b505050620000b5620000af62000f7560201b60201c565b62000f79565b600a805460ff60a01b19169055603480546001600160a01b038086166001600160a01b031992831617909255603580549285169290911691909117905560808190526200010460058262001171565b600b556040805160a081018252600f8082526032602083015260c89282019290925260fa606082015260ff608082015262000142919060056200105a565b506040805160a0810182526004808252602082018190529181018290526060810182905260808101919091526200017e9060219060056200105a565b50604080516102808101825260be815260d7602082015260f0918101829052606460608201819052606e6080830152608760a08084019190915260c083015260b960e08301526050610100830181905260d261012084015260eb61014084015261016083019390935261018082018390526101a08201929092526101c081018290526101e0810182905261020081019190915260f561022082015260fa61024082015260ff610260820152620002399060109060146200105a565b5060408051610280810182526001815260026020820152600491810182905260006060820181905260056080830152600660a0830152600760c0830152600960e08301526101008201819052600a610120830152600b610140830152601161016083015261018082018190526101a082018190526101c082018190526101e0820152610200810191909152601261022082015260136102408201819052610260820152620002ec9060229060146200105a565b506040805160c08101825260ff8152601e6020820152603c918101829052606081019190915260966080820152609c60a0820152620003309060119060066200105a565b506040805160c081018252600080825260208201819052918101829052606081018290526080810182905260a0810191909152620003739060239060066200105a565b50604080516103808101825260dd81526064602082015260b591810191909152608c6060820181905260e060808301819052609360a080850191909152605460c0850181905260e4838601526101008501849052610120850183905260fa61014086015261016085019190915260f161018085015260cf6101a085015260ad6101c08501526101e084015260fe61020084015260dc61022084015260c4610240840152610260830182905260a861028084015260fc6102a084018190526102c084019290925260b76102e084015260ec61030084015261032083019190915261034082015260ff6103608201526200047090601290601c6200105a565b50604080516103808101825260018082526002602083015260059282018390526000606083015260808201819052600760a083015260c0820152600a60e08201819052610100820192909252610120810191909152600b6101408201819052600c610160830152600d6101808301819052600e6101a0840181905260106101c08501526101e084019290925260116102008401819052601761022085018190526102408501929092526102608401929092526102808301919091526102a082018190526102c082015260186102e0820152601b6103008201819052610320820181905261034082018190526103608201526200057190602490601c6200105a565b50604080516101408101825260af80825260646020830181905260289383019390935260fa60608301526073608083015260a082019290925260b960c082015260e081019190915260b461010082015260ff610120820152620005d990601390600a6200105a565b50604080516101408101825260038152600060208201526004918101919091526006606082018190526080820152600760a0820152600860c0820181905260e0820152600961010082018190526101208201526200063c90602590600a6200105a565b506040805161020081018252605080825260e1602083015260e38284015260e460608301526070608083015260f060a080840182905260c0840185905260e084015260a761010084015260d961012084015260ab610140840152610160830193909352610180820192909252607e6101a08201526101c081019190915260ff6101e0820152620006d19060149060106200105a565b50604080516102008101825260018152600260208201819052600392820192909252600860608201819052608082019290925260a0810182905260c0810191909152600960e08201819052610100820152600a6101208201819052600d61014083018190526101608301919091526101808201819052600f6101a083018190526101c08301919091526101e0820152620007709060269060106200105a565b50604080516020810190915260ff8152620007909060159060016200105a565b50604080516020810190915260008152620007b09060279060016200105a565b50604080516102608101825260f3815260bd6020820152608591810182905260608101829052603960808201819052605f60a0830152609860c0830152608760e0830152610100820192909252610120810182905260de61014082015260a861016082015261018081018290526101a081019190915260266101c082015260726101e08201819052610200820181905261022082015260ff6102408201526200085e9060169060136200105a565b50604080516102608101825260018082526007602083018190526000938301849052606083018490526080830184905260a0830184905260c08301849052600a60e084015261010083018490526101208301849052600b61014084018190526012610160850181905261018085018690526101a085018690526101c08501959095526101e08401929092526102008301526102208201526102408101919091526200090e9060289060136200105a565b50604080516020810190915260ff81526200092e9060179060016200105a565b506040805160208101909152600081526200094e9060299060016200105a565b50604080516101208101825260d28152605a602082015260099181018290526060810182905260808101829052609660a082015260c0810182905260ff60e08201526101008101829052620009a791601891906200105a565b5060408051610120810182526005808252600060208301819052928201929092526060810182905260808101829052600760a0820181905260c0820183905260e082015261010081019190915262000a0490602a9060096200105a565b50604080516020810190915260ff815262000a249060199060016200105a565b5060408051602081019091526000815262000a4490602b9060016200105a565b50604080516020810190915260ff815262000a6490601a9060016200105a565b5060408051602081019091526000815262000a8490602c9060016200105a565b506040805161036081018252608780825260b1602083015260db92820192909252608d606082015260b7608082015260e160a0820152609360c082015260bd60e082015260e761010082015261012081018290526101408101829052610160810182905261018081019190915260f66101a082015260966101c082018190526101e0820152609c61020082015260a561022082015260ab61024082015260b461026082015260ba61028082015260c36102a082015260c96102c082015260d26102e082015260f361030082015260fc61032082015260ff61034082015262000b7090601b90816200105a565b506040805161036081018252600181526002602082015260039181018290526004606082015260056080820152600660a08201819052600760c0830152600860e0830152600d610100830152610120820192909252610140810191909152600e610160820152600f61018082015260106101a082018190526101c082015260116101e08201526012610200820152601361022082015260146102408201526015610260820152601661028082015260176102a082015260186102c082015260196102e0820152601a6103008201819052610320820181905261034082015262000c5e90602d90601b6200105a565b50604080516020810190915260ff815262000c7e90601c9060016200105a565b5060408051602081019091526000815262000c9e90602e9060016200105a565b50604080516101a08101825260ef815260f4602082015260f99181019190915260ea606082018190526080820181905260a0820181905260c0820181905260e082018190526101008201819052610120820152608261014082015260ff61016082015260f761018082015262000d1990601d90600d6200105a565b50604080516101a0810182526001815260026020820152600b918101829052600060608201526080810182905260a0810182905260c0810182905260e08101829052610100810182905261012081018290526101408101829052610160810182905261018081019190915262000d9490602f90600d6200105a565b50604080516101e081018252604b80825260b4602083015260a592820192909252607860608201819052603c6080830152609660a0830152606960c083015260c360e08301819052602d610100840181905260e16101208501526101408401949094526101608301939093526101808201929092526101a081019190915260ff6101c082015262000e2a90601e90600f6200105a565b50604080516101e08101825260018152600960208201526000918101829052606081018290526080810182905260a0810182905260c0810182905260e081018290526101008101829052600c61012082018190526101408201839052610160820192909252600e61018082018190526101a08201929092526101c081019190915262000ebb90603090600f6200105a565b50604080516020810190915260ff815262000edb90601f9060016200105a565b5060408051602081019091526000815262000efb9060319060016200105a565b50604080516080810182526008815260a0602082015260499181019190915260ff6060820152600f601162000f359291019060046200105a565b506040805160808101825260028152600360208201819052918101829052606081019190915262000f6b9060329060046200105a565b50505050620011cf565b3390565b600a80546001600160a01b038381166001600160a01b0319831681179093556040519116919082907f8be0079c531659141344cd1fd0a4f28419497f9722a3daafe3b4186f6b6457e090600090a35050565b82805462000fd99062001192565b90600052602060002090601f01602090048101928262000ffd576000855562001048565b82601f106200101857805160ff191683800117855562001048565b8280016001018555821562001048579182015b82811115620010485782518255916020019190600101906200102b565b5062001056929150620010fd565b5090565b82805482825590600052602060002090601f01602090048101928215620010485791602002820160005b83821115620010c457835183826101000a81548160ff021916908360ff160217905550926020019260010160208160000104928301926001030262001084565b8015620010f35782816101000a81549060ff0219169055600101602081600001049283019260010302620010c4565b5050620010569291505b5b80821115620010565760008155600101620010fe565b80516001600160a01b03811681146200112c57600080fd5b919050565b60008060006060848603121562001146578283fd5b620011518462001114565b9250620011616020850162001114565b9150604084015190509250925092565b6000826200118d57634e487b7160e01b81526012600452602481fd5b500490565b600181811c90821680620011a757607f821691505b60208210811415620011c957634e487b7160e01b600052602260045260246000fd5b50919050565b6080516130bd620012006000396000818161081501528181610b4d01528181610b9b0152610f7c01526130bd6000f3fe6080604052600436106102305760003560e01c80635c975abb1161012e578063a22cb465116100ab578063e05c57bf1161006f578063e05c57bf14610694578063e1fc334f1461077a578063e985e9c51461079a578063f2fde38b146107e3578063f47c84c51461080357600080fd5b8063a22cb46514610603578063b88d4fde14610623578063c002d23d14610643578063c084f5401461065e578063c87b56dd1461067457600080fd5b80638da5cb5b116100f25780638da5cb5b146105565780638fbb5fa71461057457806394e568471461059457806395d89b41146105c1578063a1b8f374146105d657600080fd5b80635c975abb146104cf5780636352211e146104ee57806367f68fac1461050e57806370a0823114610521578063715018a61461054157600080fd5b80632f745c59116101bc5780633ccfd60b116101805780633ccfd60b146104375780634018b1f81461044c57806342842e0e146104615780634f02c420146104815780634f6ccce7146104af57600080fd5b80632f745c591461038557806333df4b2c146103a55780633431a753146103d757806336838391146103f75780633b342a851461041757600080fd5b806316c38b3c1161020357806316c38b3c146102e657806318160ddd14610306578063194f480e1461032557806323b872dd1461034557806327de8f271461036557600080fd5b806301ffc9a71461023557806306fdde031461026a578063081812fc1461028c578063095ea7b3146102c4575b600080fd5b34801561024157600080fd5b50610255610250366004612ae8565b610837565b60405190151581526020015b60405180910390f35b34801561027657600080fd5b5061027f610862565b6040516102619190612cb1565b34801561029857600080fd5b506102ac6102a7366004612b93565b6108f4565b6040516001600160a01b039091168152602001610261565b3480156102d057600080fd5b506102e46102df366004612aa3565b61098e565b005b3480156102f257600080fd5b506102e4610301366004612ace565b610aa4565b34801561031257600080fd5b506008545b604051908152602001610261565b34801561033157600080fd5b506033546102ac906001600160a01b031681565b34801561035157600080fd5b506102e4610360366004612988565b610ae7565b34801561037157600080fd5b50610317610380366004612b93565b610b33565b34801561039157600080fd5b506103176103a0366004612aa3565b610bf3565b3480156103b157600080fd5b506103c56103c0366004612bcd565b610c89565b60405160ff9091168152602001610261565b3480156103e357600080fd5b506102e46103f2366004612b93565b610ccf565b34801561040357600080fd5b506103c5610412366004612bcd565b610cfe565b34801561042357600080fd5b506102e4610432366004612918565b610d0e565b34801561044357600080fd5b506102e4610d5a565b34801561045857600080fd5b50600b54610317565b34801561046d57600080fd5b506102e461047c366004612988565b610dbd565b34801561048d57600080fd5b50600c5461049c9061ffff1681565b60405161ffff9091168152602001610261565b3480156104bb57600080fd5b506103176104ca366004612b93565b610dd8565b3480156104db57600080fd5b50600a54600160a01b900460ff16610255565b3480156104fa57600080fd5b506102ac610509366004612b93565b610e79565b6102e461051c366004612bab565b610ef0565b34801561052d57600080fd5b5061031761053c366004612918565b6113f9565b34801561054d57600080fd5b506102e4611480565b34801561056257600080fd5b50600a546001600160a01b03166102ac565b34801561058057600080fd5b506034546102ac906001600160a01b031681565b3480156105a057600080fd5b506105b46105af366004612b93565b6114b6565b6040516102619190612d9c565b3480156105cd57600080fd5b5061027f611570565b3480156105e257600080fd5b506103176105f1366004612b93565b600e6020526000908152604090205481565b34801561060f57600080fd5b506102e461061e366004612a6f565b61157f565b34801561062f57600080fd5b506102e461063e3660046129c8565b61158e565b34801561064f57600080fd5b5061031766f6a11f484ec00081565b34801561066a57600080fd5b50610317600b5481565b34801561068057600080fd5b5061027f61068f366004612b93565b6115c6565b3480156106a057600080fd5b5061071f6106af366004612b93565b600d6020526000908152604090205460ff808216916101008104821691620100008204811691630100000081048216916401000000008204811691650100000000008104821691600160301b8204811691600160381b8104821691600160401b8204811691600160481b9004168a565b604080519a15158b5260ff998a1660208c0152978916978a01979097529487166060890152928616608088015290851660a0870152841660c0860152831660e085015282166101008401521661012082015261014001610261565b34801561078657600080fd5b506035546102ac906001600160a01b031681565b3480156107a657600080fd5b506102556107b5366004612950565b6001600160a01b03918216600090815260056020908152604080832093909416825291909152205460ff1690565b3480156107ef57600080fd5b506102e46107fe366004612918565b6116c5565b34801561080f57600080fd5b506103177f000000000000000000000000000000000000000000000000000000000000000081565b60006001600160e01b0319821663780e9d6360e01b148061085c575061085c8261175d565b92915050565b60606000805461087190612f6c565b80601f016020809104026020016040519081016040528092919081815260200182805461089d90612f6c565b80156108ea5780601f106108bf576101008083540402835291602001916108ea565b820191906000526020600020905b8154815290600101906020018083116108cd57829003601f168201915b5050505050905090565b6000818152600260205260408120546001600160a01b03166109725760405162461bcd60e51b815260206004820152602c60248201527f4552433732313a20617070726f76656420717565727920666f72206e6f6e657860448201526b34b9ba32b73a103a37b5b2b760a11b60648201526084015b60405180910390fd5b506000908152600460205260409020546001600160a01b031690565b600061099982610e79565b9050806001600160a01b0316836001600160a01b03161415610a075760405162461bcd60e51b815260206004820152602160248201527f4552433732313a20617070726f76616c20746f2063757272656e74206f776e656044820152603960f91b6064820152608401610969565b336001600160a01b0382161480610a235750610a2381336107b5565b610a955760405162461bcd60e51b815260206004820152603860248201527f4552433732313a20617070726f76652063616c6c6572206973206e6f74206f7760448201527f6e6572206e6f7220617070726f76656420666f7220616c6c00000000000000006064820152608401610969565b610a9f83836117ad565b505050565b600a546001600160a01b03163314610ace5760405162461bcd60e51b815260040161096990612d16565b8015610adf57610adc61181b565b50565b610adc6118c0565b6033546001600160a01b0316336001600160a01b031614610b2857610b0c3382611944565b610b285760405162461bcd60e51b815260040161096990612d4b565b610a9f838383611a3b565b6000600b548211610b4657506000919050565b6005610b737f00000000000000000000000000000000000000000000000000000000000000006002612f0a565b610b7d9190612ef6565b8211610b94575069043c33c1937564800000919050565b6005610bc17f00000000000000000000000000000000000000000000000000000000000000006004612f0a565b610bcb9190612ef6565b8211610be25750690878678326eac9000000919050565b506910f0cf064dd592000000919050565b6000610bfe836113f9565b8210610c605760405162461bcd60e51b815260206004820152602b60248201527f455243373231456e756d657261626c653a206f776e657220696e646578206f7560448201526a74206f6620626f756e647360a81b6064820152608401610969565b506001600160a01b03919091166000908152600660209081526040808320938352929052205490565b600f8260128110610c9957600080fd5b018181548110610ca857600080fd5b9060005260206000209060209182820401919006915091509054906101000a900460ff1681565b600a546001600160a01b03163314610cf95760405162461bcd60e51b815260040161096990612d16565b600b55565b60218260128110610c9957600080fd5b600a546001600160a01b03163314610d385760405162461bcd60e51b815260040161096990612d16565b603380546001600160a01b0319166001600160a01b0392909216919091179055565b600a546001600160a01b03163314610d845760405162461bcd60e51b815260040161096990612d16565b600a546040516001600160a01b03909116904780156108fc02916000818181858888f19350505050158015610adc573d6000803e3d6000fd5b610a9f8383836040518060200160405280600081525061158e565b6000610de360085490565b8210610e465760405162461bcd60e51b815260206004820152602c60248201527f455243373231456e756d657261626c653a20676c6f62616c20696e646578206f60448201526b7574206f6620626f756e647360a01b6064820152608401610969565b60088281548110610e6757634e487b7160e01b600052603260045260246000fd5b90600052602060002001549050919050565b6000818152600260205260408120546001600160a01b03168061085c5760405162461bcd60e51b815260206004820152602960248201527f4552433732313a206f776e657220717565727920666f72206e6f6e657869737460448201526832b73a103a37b5b2b760b91b6064820152608401610969565b600a54600160a01b900460ff1615610f3d5760405162461bcd60e51b815260206004820152601060248201526f14185d5cd8589b194e881c185d5cd95960821b6044820152606401610969565b323314610f775760405162461bcd60e51b81526020600482015260086024820152674f6e6c7920454f4160c01b6044820152606401610969565b600c547f000000000000000000000000000000000000000000000000000000000000000090610fab90849061ffff16612eb9565b1115610fed5760405162461bcd60e51b8152602060048201526011602482015270105b1b081d1bdad95b9cc81b5a5b9d1959607a1b6044820152606401610969565b600082118015610ffe5750600a8211155b6110405760405162461bcd60e51b8152602060048201526013602482015272125b9d985b1a59081b5a5b9d08185b5bdd5b9d606a1b6044820152606401610969565b600b54600c5461ffff16101561111057600b54600c5461106590849061ffff16612eb9565b11156110b35760405162461bcd60e51b815260206004820152601f60248201527f416c6c20746f6b656e73206f6e2d73616c6520616c726561647920736f6c64006044820152606401610969565b346110c566f6a11f484ec00084612f0a565b1461110b5760405162461bcd60e51b8152602060048201526016602482015275125b9d985b1a59081c185e5b595b9d08185b5bdd5b9d60521b6044820152606401610969565b61111b565b341561111b57600080fd5b6000808261113757604080516000815260208101909152611189565b8367ffffffffffffffff81111561115e57634e487b7160e01b600052604160045260246000fd5b604051908082528060200260200182016040528015611187578160200160208202803683370190505b505b90506000805b858110156112b857600c805461ffff169060006111ab83612fa7565b82546101009290920a61ffff818102199093169183160217909155600c546111d4925016611be6565b600c549092506111e89061ffff1683611c46565b5060006111f483611de2565b905085158061120c57506001600160a01b0381163314155b1561122857600c5461122390829061ffff16611eae565b611288565b603354600c54611245916001600160a01b03169061ffff16611eae565b600c54845161ffff9091169085908490811061127157634e487b7160e01b600052603260045260246000fd5b602002602001019061ffff16908161ffff16815250505b600c546112989061ffff16610b33565b6112a29086612eb9565b94505080806112b090612fc9565b91505061118f565b506112e76040518060400160405280600d81526020016c1d1bdd185b15dbdbdb10dbdcdd609a1b815250611ec8565b61131060405180604001604052806008815260200167746f6b656e49647360c01b815250611ec8565b8215611389576034546001600160a01b0316639dc29fac336040516001600160e01b031960e084901b1681526001600160a01b03909116600482015260248101869052604401600060405180830381600087803b15801561137057600080fd5b505af1158015611384573d6000803e3d6000fd5b505050505b83156113f2576033546001600160a01b03166381d449c133846040518363ffffffff1660e01b81526004016113bf929190612c57565b600060405180830381600087803b1580156113d957600080fd5b505af11580156113ed573d6000803e3d6000fd5b505050505b5050505050565b60006001600160a01b0382166114645760405162461bcd60e51b815260206004820152602a60248201527f4552433732313a2062616c616e636520717565727920666f7220746865207a65604482015269726f206164647265737360b01b6064820152608401610969565b506001600160a01b031660009081526003602052604090205490565b600a546001600160a01b031633146114aa5760405162461bcd60e51b815260040161096990612d16565b6114b46000611f0b565b565b6114be6128af565b506000908152600d6020908152604091829020825161014081018452905460ff808216151583526101008083048216948401949094526201000082048116948301949094526301000000810484166060830152640100000000810484166080830152650100000000008104841660a0830152600160301b8104841660c0830152600160381b8104841660e0830152600160401b8104841692820192909252600160481b90910490911661012082015290565b60606001805461087190612f6c565b61158a338383611f5d565b5050565b6115983383611944565b6115b45760405162461bcd60e51b815260040161096990612d4b565b6115c08484848461202c565b50505050565b6000818152600260205260409020546060906001600160a01b03166116455760405162461bcd60e51b815260206004820152602f60248201527f4552433732314d657461646174613a2055524920717565727920666f72206e6f60448201526e3732bc34b9ba32b73a103a37b5b2b760891b6064820152608401610969565b60355460405163c87b56dd60e01b8152600481018490526001600160a01b039091169063c87b56dd9060240160006040518083038186803b15801561168957600080fd5b505afa15801561169d573d6000803e3d6000fd5b505050506040513d6000823e601f3d908101601f1916820160405261085c9190810190612b20565b600a546001600160a01b031633146116ef5760405162461bcd60e51b815260040161096990612d16565b6001600160a01b0381166117545760405162461bcd60e51b815260206004820152602660248201527f4f776e61626c653a206e6577206f776e657220697320746865207a65726f206160448201526564647265737360d01b6064820152608401610969565b610adc81611f0b565b60006001600160e01b031982166380ac58cd60e01b148061178e57506001600160e01b03198216635b5e139f60e01b145b8061085c57506301ffc9a760e01b6001600160e01b031983161461085c565b600081815260046020526040902080546001600160a01b0319166001600160a01b03841690811790915581906117e282610e79565b6001600160a01b03167f8c5be1e5ebec7d5bd14f71427d1e84f3dd0314c0f7b2291e5b200ac8c7c3b92560405160405180910390a45050565b600a54600160a01b900460ff16156118685760405162461bcd60e51b815260206004820152601060248201526f14185d5cd8589b194e881c185d5cd95960821b6044820152606401610969565b600a805460ff60a01b1916600160a01b1790557f62e78cea01bee320cd4e420270b5ea74000d11b0c9f74754ebdbfc544b05a2586118a33390565b6040516001600160a01b03909116815260200160405180910390a1565b600a54600160a01b900460ff166119105760405162461bcd60e51b815260206004820152601460248201527314185d5cd8589b194e881b9bdd081c185d5cd95960621b6044820152606401610969565b600a805460ff60a01b191690557f5db9ee0a495bf2e6ff9c91a7834c1ba4fdd244a5e8aa4e537bd38aeae4b073aa336118a3565b6000818152600260205260408120546001600160a01b03166119bd5760405162461bcd60e51b815260206004820152602c60248201527f4552433732313a206f70657261746f7220717565727920666f72206e6f6e657860448201526b34b9ba32b73a103a37b5b2b760a11b6064820152608401610969565b60006119c883610e79565b9050806001600160a01b0316846001600160a01b03161480611a035750836001600160a01b03166119f8846108f4565b6001600160a01b0316145b80611a3357506001600160a01b0380821660009081526005602090815260408083209388168352929052205460ff165b949350505050565b826001600160a01b0316611a4e82610e79565b6001600160a01b031614611ab65760405162461bcd60e51b815260206004820152602960248201527f4552433732313a207472616e73666572206f6620746f6b656e2074686174206960448201526839903737ba1037bbb760b91b6064820152608401610969565b6001600160a01b038216611b185760405162461bcd60e51b8152602060048201526024808201527f4552433732313a207472616e7366657220746f20746865207a65726f206164646044820152637265737360e01b6064820152608401610969565b611b2383838361205f565b611b2e6000826117ad565b6001600160a01b0383166000908152600360205260408120805460019290611b57908490612f29565b90915550506001600160a01b0382166000908152600360205260408120805460019290611b85908490612eb9565b909155505060008181526002602052604080822080546001600160a01b0319166001600160a01b0386811691821790925591518493918716917fddf252ad1be2c89b69c2b068fc378daa952ba7f163c4a11628f55a4df523b3ef91a4505050565b600032611bf4600143612f29565b60405160609290921b6bffffffffffffffffffffffff19166020830152406034820152426054820152607481018390526094015b60408051601f19818403018152919052805160209091012092915050565b611c4e6128af565b611c5782612117565b9050600e6000611c6683612285565b81526020019081526020016000205460001415611dc9576000838152600d602090815260408083208451815493860151928601516060870151608088015160a089015160c08a015160e08b0151610100808d01516101208e015161ffff19909c1698151561ff0019169890981760ff9a8b169091021763ffff0000191662010000968a169690960263ff0000001916959095176301000000948916949094029390931765ffff0000000019166401000000009288169290920265ff000000000019169190911765010000000000918716919091021767ffff0000000000001916600160301b9186169190910267ff00000000000000191617600160381b918516919091021769ffff00000000000000001916600160401b9184169190910269ff000000000000000000191617600160481b92909316919091029190911790558390600e90611db384612285565b815260208101919091526040016000205561085c565b611ddb83611dd684611be6565b611c46565b9392505050565b600b54600c5460009161ffff909116111580611e0b5750611e08600a60f584901c612fe4565b15155b15611e16573361085c565b603354604051631e4c4f3560e11b8152609084901c60048201526000916001600160a01b031690633c989e6a9060240160206040518083038186803b158015611e5e57600080fd5b505afa158015611e72573d6000803e3d6000fd5b505050506040513d601f19601f82011682018060405250810190611e969190612934565b90506001600160a01b03811661085c57339392505050565b61158a828260405180602001604052806000815250612324565b610adc81604051602401611edc9190612cb1565b60408051601f198184030181529190526020810180516001600160e01b031663104c13eb60e21b179052612357565b600a80546001600160a01b038381166001600160a01b0319831681179093556040519116919082907f8be0079c531659141344cd1fd0a4f28419497f9722a3daafe3b4186f6b6457e090600090a35050565b816001600160a01b0316836001600160a01b03161415611fbf5760405162461bcd60e51b815260206004820152601960248201527f4552433732313a20617070726f766520746f2063616c6c6572000000000000006044820152606401610969565b6001600160a01b03838116600081815260056020908152604080832094871680845294825291829020805460ff191686151590811790915591519182527f17307eab39ab6107e8899845ad3d59bd9653f200f220920489ca2b5937696c31910160405180910390a3505050565b612037848484611a3b565b61204384848484612378565b6115c05760405162461bcd60e51b815260040161096990612cc4565b6001600160a01b0383166120ba576120b581600880546000838152600960205260408120829055600182018355919091527ff3f7a9fe364faab93b216da50a3214154f22a0a2b415b23a84c8169e8b636ee30155565b6120dd565b816001600160a01b0316836001600160a01b0316146120dd576120dd8382612485565b6001600160a01b0382166120f457610a9f81612522565b826001600160a01b0316826001600160a01b031614610a9f57610a9f82826125fb565b61211f6128af565b61212e600a61ffff8416612fe4565b1515808252600090612141576009612144565b60005b60109390931c92905061216561ffff8416612160836000612ed1565b61263f565b60ff16602083015260109290921c9161218761ffff8416612160836001612ed1565b60ff16604083015260109290921c916121a961ffff8416612160836002612ed1565b60ff16606083015260109290921c916121cb61ffff8416612160836003612ed1565b60ff16608083015260109290921c916121ed61ffff8416612160836004612ed1565b60ff1660a083015260109290921c9161220f61ffff8416612160836005612ed1565b60ff1660c083015260109290921c9161223161ffff8416612160836006612ed1565b60ff1660e083015260109290921c9161225361ffff8416612160836007612ed1565b60ff1661010083015260109290921c9161227661ffff8416612160836008612ed1565b60ff1661012083015250919050565b8051602080830151604080850151608086015160c087015160e088015160608901516101008a01516101208b0151965199151560f890811b998b01999099526001600160f81b031997891b881660218b015294881b871660228a015292871b8616602389015290861b85166024880152851b84166025870152841b83166026860152831b8216602785015290911b166028820152600090602901611c28565b61232e8383612761565b61233b6000848484612378565b610a9f5760405162461bcd60e51b815260040161096990612cc4565b80516a636f6e736f6c652e6c6f67602083016000808483855afa5050505050565b60006001600160a01b0384163b1561247a57604051630a85bd0160e11b81526001600160a01b0385169063150b7a02906123bc903390899088908890600401612c1a565b602060405180830381600087803b1580156123d657600080fd5b505af1925050508015612406575060408051601f3d908101601f1916820190925261240391810190612b04565b60015b612460573d808015612434576040519150601f19603f3d011682016040523d82523d6000602084013e612439565b606091505b5080516124585760405162461bcd60e51b815260040161096990612cc4565b805181602001fd5b6001600160e01b031916630a85bd0160e11b149050611a33565b506001949350505050565b60006001612492846113f9565b61249c9190612f29565b6000838152600760205260409020549091508082146124ef576001600160a01b03841660009081526006602090815260408083208584528252808320548484528184208190558352600790915290208190555b5060009182526007602090815260408084208490556001600160a01b039094168352600681528383209183525290812055565b60085460009061253490600190612f29565b6000838152600960205260408120546008805493945090928490811061256a57634e487b7160e01b600052603260045260246000fd5b90600052602060002001549050806008838154811061259957634e487b7160e01b600052603260045260246000fd5b60009182526020808320909101929092558281526009909152604080822084905585825281205560088054806125df57634e487b7160e01b600052603160045260246000fd5b6001900381819060005260206000200160009055905550505050565b6000612606836113f9565b6001600160a01b039093166000908152600660209081526040808320868452825280832085905593825260079052919091209190915550565b600080600f8360ff166012811061266657634e487b7160e01b600052603260045260246000fd5b01546126729085612ff8565b9050600f8360ff166012811061269857634e487b7160e01b600052603260045260246000fd5b018160ff16815481106126bb57634e487b7160e01b600052603260045260246000fd5b60009182526020918290209181049091015460ff601f9092166101000a90048116600886901c90911610156126f157905061085c565b60218360ff166012811061271557634e487b7160e01b600052603260045260246000fd5b018160ff168154811061273857634e487b7160e01b600052603260045260246000fd5b90600052602060002090602091828204019190069054906101000a900460ff1691505092915050565b6001600160a01b0382166127b75760405162461bcd60e51b815260206004820181905260248201527f4552433732313a206d696e7420746f20746865207a65726f20616464726573736044820152606401610969565b6000818152600260205260409020546001600160a01b03161561281c5760405162461bcd60e51b815260206004820152601c60248201527f4552433732313a20746f6b656e20616c7265616479206d696e746564000000006044820152606401610969565b6128286000838361205f565b6001600160a01b0382166000908152600360205260408120805460019290612851908490612eb9565b909155505060008181526002602052604080822080546001600160a01b0319166001600160a01b03861690811790915590518392907fddf252ad1be2c89b69c2b068fc378daa952ba7f163c4a11628f55a4df523b3ef908290a45050565b6040805161014081018252600080825260208201819052918101829052606081018290526080810182905260a0810182905260c0810182905260e08101829052610100810182905261012081019190915290565b8035801515811461291357600080fd5b919050565b600060208284031215612929578081fd5b8135611ddb8161305c565b600060208284031215612945578081fd5b8151611ddb8161305c565b60008060408385031215612962578081fd5b823561296d8161305c565b9150602083013561297d8161305c565b809150509250929050565b60008060006060848603121561299c578081fd5b83356129a78161305c565b925060208401356129b78161305c565b929592945050506040919091013590565b600080600080608085870312156129dd578081fd5b84356129e88161305c565b935060208501356129f88161305c565b925060408501359150606085013567ffffffffffffffff811115612a1a578182fd5b8501601f81018713612a2a578182fd5b8035612a3d612a3882612e91565b612e60565b818152886020838501011115612a51578384fd5b81602084016020830137908101602001929092525092959194509250565b60008060408385031215612a81578182fd5b8235612a8c8161305c565b9150612a9a60208401612903565b90509250929050565b60008060408385031215612ab5578182fd5b8235612ac08161305c565b946020939093013593505050565b600060208284031215612adf578081fd5b611ddb82612903565b600060208284031215612af9578081fd5b8135611ddb81613071565b600060208284031215612b15578081fd5b8151611ddb81613071565b600060208284031215612b31578081fd5b815167ffffffffffffffff811115612b47578182fd5b8201601f81018413612b57578182fd5b8051612b65612a3882612e91565b818152856020838501011115612b79578384fd5b612b8a826020830160208601612f40565b95945050505050565b600060208284031215612ba4578081fd5b5035919050565b60008060408385031215612bbd578182fd5b82359150612a9a60208401612903565b60008060408385031215612bdf578182fd5b50508035926020909101359150565b60008151808452612c06816020860160208601612f40565b601f01601f19169290920160200192915050565b6001600160a01b0385811682528416602082015260408101839052608060608201819052600090612c4d90830184612bee565b9695505050505050565b6001600160a01b038316815260406020808301829052835191830182905260009184820191906060850190845b81811015612ca457845161ffff1683529383019391830191600101612c84565b5090979650505050505050565b602081526000611ddb6020830184612bee565b60208082526032908201527f4552433732313a207472616e7366657220746f206e6f6e20455243373231526560408201527131b2b4bb32b91034b6b83632b6b2b73a32b960711b606082015260800190565b6020808252818101527f4f776e61626c653a2063616c6c6572206973206e6f7420746865206f776e6572604082015260600190565b60208082526031908201527f4552433732313a207472616e736665722063616c6c6572206973206e6f74206f6040820152701ddb995c881b9bdc88185c1c1c9bdd9959607a1b606082015260800190565b81511515815261014081016020830151612dbb602084018260ff169052565b506040830151612dd0604084018260ff169052565b506060830151612de5606084018260ff169052565b506080830151612dfa608084018260ff169052565b5060a0830151612e0f60a084018260ff169052565b5060c0830151612e2460c084018260ff169052565b5060e0830151612e3960e084018260ff169052565b506101008381015160ff908116918401919091526101209384015116929091019190915290565b604051601f8201601f1916810167ffffffffffffffff81118282101715612e8957612e89613046565b604052919050565b600067ffffffffffffffff821115612eab57612eab613046565b50601f01601f191660200190565b60008219821115612ecc57612ecc61301a565b500190565b600060ff821660ff84168060ff03821115612eee57612eee61301a565b019392505050565b600082612f0557612f05613030565b500490565b6000816000190483118215151615612f2457612f2461301a565b500290565b600082821015612f3b57612f3b61301a565b500390565b60005b83811015612f5b578181015183820152602001612f43565b838111156115c05750506000910152565b600181811c90821680612f8057607f821691505b60208210811415612fa157634e487b7160e01b600052602260045260246000fd5b50919050565b600061ffff80831681811415612fbf57612fbf61301a565b6001019392505050565b6000600019821415612fdd57612fdd61301a565b5060010190565b600082612ff357612ff3613030565b500690565b600060ff83168061300b5761300b613030565b8060ff84160691505092915050565b634e487b7160e01b600052601160045260246000fd5b634e487b7160e01b600052601260045260246000fd5b634e487b7160e01b600052604160045260246000fd5b6001600160a01b0381168114610adc57600080fd5b6001600160e01b031981168114610adc57600080fdfea2646970667358221220e429a7ece9d9ab04328db57449ed99a713cb0a4af1a46d087312878b2d26b8be64736f6c63430008040033",
  "devdoc": {
    "kind": "dev",
    "methods": {
      "approve(address,uint256)": {
        "details": "See {IERC721-approve}."
      },
      "balanceOf(address)": {
        "details": "See {IERC721-balanceOf}."
      },
      "getApproved(uint256)": {
        "details": "See {IERC721-getApproved}."
      },
      "isApprovedForAll(address,address)": {
        "details": "See {IERC721-isApprovedForAll}."
      },
      "mintCost(uint256)": {
        "params": {
          "tokenId": "the ID to check the cost of to mint"
        },
        "returns": {
          "_0": "the cost of the given token ID"
        }
      },
      "name()": {
        "details": "See {IERC721Metadata-name}."
      },
      "owner()": {
        "details": "Returns the address of the current owner."
      },
      "ownerOf(uint256)": {
        "details": "See {IERC721-ownerOf}."
      },
      "paused()": {
        "details": "Returns true if the contract is paused, and false otherwise."
      },
      "renounceOwnership()": {
        "details": "Leaves the contract without owner. It will not be possible to call `onlyOwner` functions anymore. Can only be called by the current owner. NOTE: Renouncing ownership will leave the contract without an owner, thereby removing any functionality that is only available to the owner."
      },
      "safeTransferFrom(address,address,uint256)": {
        "details": "See {IERC721-safeTransferFrom}."
      },
      "safeTransferFrom(address,address,uint256,bytes)": {
        "details": "See {IERC721-safeTransferFrom}."
      },
      "setApprovalForAll(address,bool)": {
        "details": "See {IERC721-setApprovalForAll}."
      },
      "setBarn(address)": {
        "params": {
          "_barn": "the address of the Barn"
        }
      },
      "supportsInterface(bytes4)": {
        "details": "See {IERC165-supportsInterface}."
      },
      "symbol()": {
        "details": "See {IERC721Metadata-symbol}."
      },
      "tokenByIndex(uint256)": {
        "details": "See {IERC721Enumerable-tokenByIndex}."
      },
      "tokenOfOwnerByIndex(address,uint256)": {
        "details": "See {IERC721Enumerable-tokenOfOwnerByIndex}."
      },
      "totalSupply()": {
        "details": "See {IERC721Enumerable-totalSupply}."
      },
      "transferFrom(address,address,uint256)": {
        "details": "See {IERC721-transferFrom}."
      },
      "transferOwnership(address)": {
        "details": "Transfers ownership of the contract to a new account (`newOwner`). Can only be called by the current owner."
      }
    },
    "version": 1
  },
  "userdoc": {
    "kind": "user",
    "methods": {
      "constructor": {
        "notice": "instantiates contract and rarity tables"
      },
      "getTokenTraits(uint256)": {
        "notice": "READ "
      },
      "mint(uint256,bool)": {
        "notice": "mint a token - 90% Sheep, 10% Wolves The first 20% are free to claim, the remaining cost $WOOL"
      },
      "mintCost(uint256)": {
        "notice": "the first 20% are paid in ETH the next 20% are 20000 $WOOL the next 40% are 40000 $WOOL the final 20% are 80000 $WOOL"
      },
      "setBarn(address)": {
        "notice": "called after deployment so that the contract can get random wolf thieves"
      },
      "setPaidTokens(uint256)": {
        "notice": "updates the number of tokens for sale"
      },
      "setPaused(bool)": {
        "notice": "enables owner to pause / unpause minting"
      },
      "tokenURI(uint256)": {
        "notice": "RENDER "
      },
      "withdraw()": {
        "notice": "allows owner to withdraw funds from minting"
      }
    },
    "version": 1
  },
  "storageLayout": {
    "storage": [
      {
        "astId": 871,
        "contract": "contracts/Woolf.sol:Woolf",
        "label": "_name",
        "offset": 0,
        "slot": "0",
        "type": "t_string_storage"
      },
      {
        "astId": 873,
        "contract": "contracts/Woolf.sol:Woolf",
        "label": "_symbol",
        "offset": 0,
        "slot": "1",
        "type": "t_string_storage"
      },
      {
        "astId": 877,
        "contract": "contracts/Woolf.sol:Woolf",
        "label": "_owners",
        "offset": 0,
        "slot": "2",
        "type": "t_mapping(t_uint256,t_address)"
      },
      {
        "astId": 881,
        "contract": "contracts/Woolf.sol:Woolf",
        "label": "_balances",
        "offset": 0,
        "slot": "3",
        "type": "t_mapping(t_address,t_uint256)"
      },
      {
        "astId": 885,
        "contract": "contracts/Woolf.sol:Woolf",
        "label": "_tokenApprovals",
        "offset": 0,
        "slot": "4",
        "type": "t_mapping(t_uint256,t_address)"
      },
      {
        "astId": 891,
        "contract": "contracts/Woolf.sol:Woolf",
        "label": "_operatorApprovals",
        "offset": 0,
        "slot": "5",
        "type": "t_mapping(t_address,t_mapping(t_address,t_bool))"
      },
      {
        "astId": 1825,
        "contract": "contracts/Woolf.sol:Woolf",
        "label": "_ownedTokens",
        "offset": 0,
        "slot": "6",
        "type": "t_mapping(t_address,t_mapping(t_uint256,t_uint256))"
      },
      {
        "astId": 1829,
        "contract": "contracts/Woolf.sol:Woolf",
        "label": "_ownedTokensIndex",
        "offset": 0,
        "slot": "7",
        "type": "t_mapping(t_uint256,t_uint256)"
      },
      {
        "astId": 1832,
        "contract": "contracts/Woolf.sol:Woolf",
        "label": "_allTokens",
        "offset": 0,
        "slot": "8",
        "type": "t_array(t_uint256)dyn_storage"
      },
      {
        "astId": 1836,
        "contract": "contracts/Woolf.sol:Woolf",
        "label": "_allTokensIndex",
        "offset": 0,
        "slot": "9",
        "type": "t_mapping(t_uint256,t_uint256)"
      },
      {
        "astId": 7,
        "contract": "contracts/Woolf.sol:Woolf",
        "label": "_owner",
        "offset": 0,
        "slot": "10",
        "type": "t_address"
      },
      {
        "astId": 122,
        "contract": "contracts/Woolf.sol:Woolf",
        "label": "_paused",
        "offset": 20,
        "slot": "10",
        "type": "t_bool"
      },
      {
        "astId": 4782,
        "contract": "contracts/Woolf.sol:Woolf",
        "label": "PAID_TOKENS",
        "offset": 0,
        "slot": "11",
        "type": "t_uint256"
      },
      {
        "astId": 4784,
        "contract": "contracts/Woolf.sol:Woolf",
        "label": "minted",
        "offset": 0,
        "slot": "12",
        "type": "t_uint16"
      },
      {
        "astId": 4789,
        "contract": "contracts/Woolf.sol:Woolf",
        "label": "tokenTraits",
        "offset": 0,
        "slot": "13",
        "type": "t_mapping(t_uint256,t_struct(SheepWolf)3973_storage)"
      },
      {
        "astId": 4793,
        "contract": "contracts/Woolf.sol:Woolf",
        "label": "existingCombinations",
        "offset": 0,
        "slot": "14",
        "type": "t_mapping(t_uint256,t_uint256)"
      },
      {
        "astId": 4798,
        "contract": "contracts/Woolf.sol:Woolf",
        "label": "rarities",
        "offset": 0,
        "slot": "15",
        "type": "t_array(t_array(t_uint8)dyn_storage)18_storage"
      },
      {
        "astId": 4803,
        "contract": "contracts/Woolf.sol:Woolf",
        "label": "aliases",
        "offset": 0,
        "slot": "33",
        "type": "t_array(t_array(t_uint8)dyn_storage)18_storage"
      },
      {
        "astId": 4806,
        "contract": "contracts/Woolf.sol:Woolf",
        "label": "barn",
        "offset": 0,
        "slot": "51",
        "type": "t_contract(IBarn)3940"
      },
      {
        "astId": 4809,
        "contract": "contracts/Woolf.sol:Woolf",
        "label": "wool",
        "offset": 0,
        "slot": "52",
        "type": "t_contract(WOOL)4757"
      },
      {
        "astId": 4812,
        "contract": "contracts/Woolf.sol:Woolf",
        "label": "traits",
        "offset": 0,
        "slot": "53",
        "type": "t_contract(ITraits)3950"
      }
    ],
    "types": {
      "t_address": {
        "encoding": "inplace",
        "label": "address",
        "numberOfBytes": "20"
      },
      "t_array(t_array(t_uint8)dyn_storage)18_storage": {
        "base": "t_array(t_uint8)dyn_storage",
        "encoding": "inplace",
        "label": "uint8[][18]",
        "numberOfBytes": "576"
      },
      "t_array(t_uint256)dyn_storage": {
        "base": "t_uint256",
        "encoding": "dynamic_array",
        "label": "uint256[]",
        "numberOfBytes": "32"
      },
      "t_array(t_uint8)dyn_storage": {
        "base": "t_uint8",
        "encoding": "dynamic_array",
        "label": "uint8[]",
        "numberOfBytes": "32"
      },
      "t_bool": {
        "encoding": "inplace",
        "label": "bool",
        "numberOfBytes": "1"
      },
      "t_contract(IBarn)3940": {
        "encoding": "inplace",
        "label": "contract IBarn",
        "numberOfBytes": "20"
      },
      "t_contract(ITraits)3950": {
        "encoding": "inplace",
        "label": "contract ITraits",
        "numberOfBytes": "20"
      },
      "t_contract(WOOL)4757": {
        "encoding": "inplace",
        "label": "contract WOOL",
        "numberOfBytes": "20"
      },
      "t_mapping(t_address,t_bool)": {
        "encoding": "mapping",
        "key": "t_address",
        "label": "mapping(address => bool)",
        "numberOfBytes": "32",
        "value": "t_bool"
      },
      "t_mapping(t_address,t_mapping(t_address,t_bool))": {
        "encoding": "mapping",
        "key": "t_address",
        "label": "mapping(address => mapping(address => bool))",
        "numberOfBytes": "32",
        "value": "t_mapping(t_address,t_bool)"
      },
      "t_mapping(t_address,t_mapping(t_uint256,t_uint256))": {
        "encoding": "mapping",
        "key": "t_address",
        "label": "mapping(address => mapping(uint256 => uint256))",
        "numberOfBytes": "32",
        "value": "t_mapping(t_uint256,t_uint256)"
      },
      "t_mapping(t_address,t_uint256)": {
        "encoding": "mapping",
        "key": "t_address",
        "label": "mapping(address => uint256)",
        "numberOfBytes": "32",
        "value": "t_uint256"
      },
      "t_mapping(t_uint256,t_address)": {
        "encoding": "mapping",
        "key": "t_uint256",
        "label": "mapping(uint256 => address)",
        "numberOfBytes": "32",
        "value": "t_address"
      },
      "t_mapping(t_uint256,t_struct(SheepWolf)3973_storage)": {
        "encoding": "mapping",
        "key": "t_uint256",
        "label": "mapping(uint256 => struct IWoolf.SheepWolf)",
        "numberOfBytes": "32",
        "value": "t_struct(SheepWolf)3973_storage"
      },
      "t_mapping(t_uint256,t_uint256)": {
        "encoding": "mapping",
        "key": "t_uint256",
        "label": "mapping(uint256 => uint256)",
        "numberOfBytes": "32",
        "value": "t_uint256"
      },
      "t_string_storage": {
        "encoding": "bytes",
        "label": "string",
        "numberOfBytes": "32"
      },
      "t_struct(SheepWolf)3973_storage": {
        "encoding": "inplace",
        "label": "struct IWoolf.SheepWolf",
        "members": [
          {
            "astId": 3954,
            "contract": "contracts/Woolf.sol:Woolf",
            "label": "isSheep",
            "offset": 0,
            "slot": "0",
            "type": "t_bool"
          },
          {
            "astId": 3956,
            "contract": "contracts/Woolf.sol:Woolf",
            "label": "fur",
            "offset": 1,
            "slot": "0",
            "type": "t_uint8"
          },
          {
            "astId": 3958,
            "contract": "contracts/Woolf.sol:Woolf",
            "label": "head",
            "offset": 2,
            "slot": "0",
            "type": "t_uint8"
          },
          {
            "astId": 3960,
            "contract": "contracts/Woolf.sol:Woolf",
            "label": "ears",
            "offset": 3,
            "slot": "0",
            "type": "t_uint8"
          },
          {
            "astId": 3962,
            "contract": "contracts/Woolf.sol:Woolf",
            "label": "eyes",
            "offset": 4,
            "slot": "0",
            "type": "t_uint8"
          },
          {
            "astId": 3964,
            "contract": "contracts/Woolf.sol:Woolf",
            "label": "nose",
            "offset": 5,
            "slot": "0",
            "type": "t_uint8"
          },
          {
            "astId": 3966,
            "contract": "contracts/Woolf.sol:Woolf",
            "label": "mouth",
            "offset": 6,
            "slot": "0",
            "type": "t_uint8"
          },
          {
            "astId": 3968,
            "contract": "contracts/Woolf.sol:Woolf",
            "label": "neck",
            "offset": 7,
            "slot": "0",
            "type": "t_uint8"
          },
          {
            "astId": 3970,
            "contract": "contracts/Woolf.sol:Woolf",
            "label": "feet",
            "offset": 8,
            "slot": "0",
            "type": "t_uint8"
          },
          {
            "astId": 3972,
            "contract": "contracts/Woolf.sol:Woolf",
            "label": "alphaIndex",
            "offset": 9,
            "slot": "0",
            "type": "t_uint8"
          }
        ],
        "numberOfBytes": "32"
      },
      "t_uint16": {
        "encoding": "inplace",
        "label": "uint16",
        "numberOfBytes": "2"
      },
      "t_uint256": {
        "encoding": "inplace",
        "label": "uint256",
        "numberOfBytes": "32"
      },
      "t_uint8": {
        "encoding": "inplace",
        "label": "uint8",
        "numberOfBytes": "1"
      }
    }
  }
}